S017000047445F70726F6A6563745F416D69742E7372656342
S11300000C942A000C9434000C9434000C943400A6
S11300100C9434000C9434000C9434000C9434008C
S11300200C9434000C9434000C9434000C9434007C
S11300300C9434000C9470000C9434000C94340030
S11300400C9434000C9434000C9434000C9434005C
S11300500C94340011241FBECFE5D8E0DEBFCDBF21
S11300600E9439000C949A000C9400000E949500A0
S1130070FFCF0E94360080E090E0089587B38F7B25
S113008087BB87B3806287BB87B3806887BB87B32E
S1130090806187BB80E58DB908958FB9779BFECFCA
S11300A008958FB780688FBF10BC87E689B98BB17C
S11300B08D7F8BB98BB18E7F8BB91AB88AB180686A
S11300C08AB98AB180648AB98AB180628AB98AB1EC
S11300D080618AB98AB188608AB986E880BD08954A
S11300E01F920F920FB60F9211242F933F934F93A9
S11300F05F936F937F938F939F93AF93BF93EF938C
S1130100FF938CB10E944D00FF91EF91BF91AF918D
S11301109F918F917F916F915F914F913F912F911B
S11301200F900FBE0F901F9018950E943E000E94E2
S10B013051000895F894FFCF7B
S9030000FC
