:100000000C942A000C9434000C9434000C943400AA
:100010000C9434000C9434000C9434000C94340090
:100020000C9434000C9434000C9434000C94340080
:100030000C9457010C9434000C9434000C9434004C
:100040000C9434000C9434000C9434000C94340060
:100050000C94340011241FBECFE5D8E0DEBFCDBF25
:100060000E9460000C94AA010C9400000E94A5015B
:10007000FFCF41E063E083E00E94650041E062E081
:1000800082E00E9465000895882339F0813049F4A8
:1000900063E083E00E94D600089563E083E00E945D
:1000A0000A010895882339F0813049F462E082E042
:1000B0000E94D600089562E082E00E940A0108953D
:1000C0000E94360080E090E00895442319F041300A
:1000D000C9F10895813091F028F08230D9F0833051
:1000E00029F108952AB381E090E002C0880F991F9A
:1000F0006A95E2F7809582238ABB089527B381E051
:1001000090E002C0880F991F6A95E2F780958223DC
:1001100087BB089524B381E090E002C0880F991F47
:100120006A95E2F78095822384BB089521B381E02C
:1001300090E002C0880F991F6A95E2F780958223AC
:1001400081BB0895813089F028F08230C9F0833076
:1001500011F108952AB381E090E002C0880F991F41
:100160006A95E2F7822B8ABB089527B381E090E07D
:1001700002C0880F991F6A95E2F7822B87BB08950A
:1001800024B381E090E002C0880F991F6A95E2F7DE
:10019000822B84BB089521B381E090E002C0880FD8
:1001A000991F6A95E2F7822B81BB0895813089F00F
:1001B00028F08230C9F0833011F108952BB381E02B
:1001C00090E002C0880F991F6A95E2F7822B8BBBE3
:1001D000089528B381E090E002C0880F991F6A95C6
:1001E000E2F7822B88BB089525B381E090E002C03E
:1001F000880F991F6A95E2F7822B85BB089522B379
:1002000081E090E002C0880F991F6A95E2F7822B87
:1002100082BB0895813091F028F08230D9F083308C
:1002200029F108952BB381E090E002C0880F991F57
:100230006A95E2F7809582238BBB089528B381E00D
:1002400090E002C0880F991F6A95E2F7809582239B
:1002500088BB089525B381E090E002C0880F991F04
:100260006A95E2F78095822385BB089522B381E0E9
:1002700090E002C0880F991F6A95E2F7809582236B
:1002800082BB089587B3806487BB87B38F7D87BBAC
:1002900087B38F7787BB87B38F7E87BB8DB18F7E08
:1002A0008DB980EC8DB98FB780688FBF08951F928C
:1002B0000F920FB60F9211242F933F934F935F939A
:1002C0006F937F938F939F93AF93BF93EF93FF931E
:1002D0008FB18233A1F028F4803349F0813359F093
:1002E00023C08433D1F090F08533D9F01DC081E074
:1002F0000E94440019C081E00E94520015C081E0B4
:100300000E94440081E00E9452000EC080E00E94E2
:10031000440080E00E94520007C080E00E94440038
:1003200003C080E00E945200FF91EF91BF91AF9116
:100330009F918F917F916F915F914F913F912F91FD
:100340000F900FBE0F901F9018950E9439000E94C9
:0803500042010895F894FFCF6B
:00000001FF
